:020000041000EA
:1000000000B5324B212058609868022188439860DF
:10001000D860186158612E4B002199600221596106
:100020000121F02299502B49196001219960352056
:1000300000F044F80222904214D00621196600F024
:1000400034F8196E01211966002018661A6600F04E
:100050002CF8196E196E196E052000F02FF8012189
:100060000842F9D1002199601B49196000215960AB
:100070001A491B48016001219960EB211966A021F2
:10008000196600F012F800219960164914480160C1
:100090000121996001BC002800D000471248134993
:1000A000086003C880F30888084703B5996A0420EC
:1000B0000142FBD001200142F8D103BD02B5186610
:1000C0001866FFF7F2FF186E186E02BD00000240BE
:1000D000000000180000070000035F00212200005C
:1000E000F4000018222000A00001001008ED00E03C
:1000F00000000000000000000000000074B24E7A12
:1001000000200420F7010010C3010010C5010010F9
:10011000C1010010C1010010C1010010C101001097
:10012000C1010010C1010010C1010010C701001081
:10013000C1010010C1010010C9010010CB01001065
:10014000CD010010CD010010CD010010CD01001037
:10015000CD010010CD010010CD010010CD01001027
:10016000CD010010CD010010CD010010CD01001017
:10017000CD010010CD010010CD010010CD01001007
:10018000CD010010CD010010CD010010CD010010F7
:10019000CD010010CD010010CD010010CD010010E7
:1001A000CD010010CD010010CD010010CD010010D7
:1001B000CD010010CD010010CD010010CD010010C7
:1001C00000BE00BE00BE00BE00BE00BEEFF3058054
:1001D000103800BEF2EB8871C4AD0010E4AD001021
:1001E0003402001090A31AE700201F49086006C8D7
:1001F00081F3088810471D48006800282FD10DA4FE
:100200000ECC002902D000F012F8F9E71849194A7B
:10021000002000E001C19142FCD1174988471749ED
:1002200088471749884700BEFDE701C901C29A42C5
:10023000FBD37047E4AD0010C00000205C24002018
:1002400080D10010000004200000042080D10010A4
:10025000001004200010042000000000704709482E
:1002600003F038FB0047000008ED00E0000000D07C
:10027000602400204832002065260010550300103D
:10028000232600105756000006005250ABB36053AF
:10029000A0A1001006005250861C0302B0A100105D
:1002A000060052505422A29DC0A1001005005250D9
:1002B000DE65F46880D10010F8B5C0460448054BEF
:1002C00010B5834203D0044B002B00D0984710BDDB
:1002D0005C2400205C240020000000000648074940
:1002E000091A8B10C90FC91810B5491003D0044B57
:1002F000002B00D0984710BD5C2400205C24002017
:100300000000000010B5074C2378002B09D1FFF73F
:10031000D5FF054B002B02D0044800E000BF0123AD
:10032000237010BD6825002000000000F891001027
:10033000054B10B5002B03D00449054800E000BF71
:10034000FFF7CCFF10BDC046000000006C25002068
:10035000F8910010F0B589B004F0F0FB3C4804F0CF
:10036000E1FB01230193002300933A4B012210216A
:1003700002A800F021F9384804F0D4FBFF2102A8BC
:1003800000F094F902A800F09DF9FA20800001F035
:1003900035FB324804F0C6FBFF21090202A800F039
:1003A00085F902A800F08EF9FA20800001F026FB02
:1003B0002B4804F0B7FBFF21090402A800F076F9EE
:1003C00002A800F07FF9FA20800001F017FB254811
:1003D00004F0A8FB00230022FF2102A800F053F93B
:1003E000FF210022090402A800F066F902A800F02B
:1003F00069F9FA20800001F001FB1B4804F092FB30
:1004000008F064FB05002A2004F028FB08F05EFBDE
:10041000C30703D50024012701260CE0012401278E
:100420007F42002607E002A800F04CF9322001F0DC
:10043000E5FAE419E4B2B442E2D02A00210002A8AD
:1004400000F015F9EFE702A800F010F806F0C4FF7D
:10045000F891001000002050109200102892001017
:1004600044920010609200108C92001070470000BF
:10047000F0B5DE4657464E464546E0B587B0040027
:100480000E001D0010AB80CB1B78984612AB1B787A
:100490009B4613AB1B789A4614AB1B7899460160B8
:1004A00042608560C7603F4B9A4200D971E090007E
:1004B00007F0A2FC6061434623745B4663745346B5
:1004C000A3744B46E3743849280006F0C3FE0400C9
:1004D0004346002B5FD118339846344B9D425DD084
:1004E0000721300000F006F90123009332003900A3
:1004F000280006F0CBFE80235B020293E21CE3019E
:10050000120313432A4A13400393B602802189053C
:100510000E43059643465B06F82292051340C0221F
:10052000D2021A438023DB0513430493052001F014
:1005300037FF04F0A5F81F4904F083F8804604F063
:10054000C7F886B2002E2BD0300004F099F8011CB9
:10055000404604F06CF88721C90504F088F804F0DF
:10056000B7F8C0B2000236043043029002AB22005A
:100570003900280006F0DCFE2A680123BB409A43BC
:1005800013432B6007B03CBC90469946A246AB464D
:10059000F0BD06F0F7FF202398469EE70621A0E76E
:1005A0000020DFE7FEFFFF1FA89200100000205090
:1005B000FFFFFF9F0024F44A30B587B004000AA86B
:1005C00020C80078012813D002281ED0002802D0AD
:1005D000200007B030BD033004900138039001388B
:1005E00002900020019000952000FFF741FFEFE707
:1005F0000320049002380390013002900020019003
:1006000000952000FFF734FFE2E703200490013853
:100610000390013802900330019000952000FFF70D
:1006200027FFD5E730B504000022002009E0042BA5
:1006300005D10B0E184302E0FF230B4018430002C4
:100640000132032A12D8A3181B7C032B09D0EED841
:10065000012BF1D0022BF2D10D0AFF232B401843BE
:10066000EDE70D0CFF232B401843E8E730BD10B534
:1006700043688B4206D98B004169CC181100FFF703
:10068000D1FF206010BD70B505001400D318466876
:100690009E4200D31E002800FFF7C4FFA64204D9E3
:1006A000A3006A69D0500134F8E770BD10B5436803
:1006B0000022FFF7E8FF10BD10B543689B1AFFF753
:1006C000E2FF10BDF0B5002603E00434A40067513A
:1006D00001364368B3420CD98568C468B3004269E7
:1006E000D7586A682100103101238B401342F8D19A
:1006F000EBE7F0BD10B58300084A944663441C68DC
:1007000040226240C02414408022520113431C60E6
:10071000C000034B9C466044416010BD04C00140D2
:1007200000400140034B1B6802201840431E9841C3
:10073000C0B2704700C00640EFF3108072B6034BA2
:100740001B68002BFBD0BFF35F8F70472C0100D0DC
:10075000BFF35F8F024B00221A6080F3108870474E
:100760002C0100D0F8B506000C001500FFF7E4FFDF
:10077000E308F718F15C07222240012393400B4263
:1007800005D1DBB20B433B70FFF7E2FFF8BD210060
:10079000280001F0E3FFF0B583B0060001911400DA
:1007A0001F00FFF7C9FFBC420ED8E308F518F35C41
:1007B0000721214001228A401A4201D00134F2E788
:1007C000D2B21A432A7001E001246442FFF7C0FF4D
:1007D000002C02DB200003B0F0BD019B002BF9D000
:1007E000089801F0BBFF000000231F2B08D8054A22
:1007F0009A189200BFF35F8F002111600133F4E774
:100800007047C04640000034054A1078431CDBB2F4
:100810001370172B02D9130010221A707047C046AC
:10082000101B002000B583B00100044B00931F2370
:1008300018220348FFF7AFFF03B000BDB8920010C5
:100840007C2A0020074B9B68103080001950BFF3B2
:100850005F8FBFF35F8F044B0021196082F3108814
:100860007047C04600ED00E0240100D010B5091A21
:100870000B1F0A4A94466144094A914208D8DA0794
:1008800006D45B105B055B0D0648184380B210BDB3
:10089000054B064AA321064801F0C6FEFC070000EE
:1008A000FE0F000000E0FFFFD4920010149500102E
:1008B0000493001010B5091A04394C08090B08D12B
:1008C0004905490D064A11430180064B23434380E5
:1008D00010BD054B054AAB21054801F0A5FEC046F9
:1008E00000F0FFFF00F8FFFF40930010209500107C
:1008F0000493001001238340034A10681840431EEC
:100900009841C0B27047C04600E100E0002904D021
:10091000034B1860034B18607047034B1860FBE7EC
:1009200080E200E000E100E080E100E010B501239A
:1009300083401800FFF7EAFF10BD00000123834049
:10094000014A13607047C04600E200E0024B9B681A
:1009500010308000C058704700ED00E010B5FFF780
:10096000F5FF002805D0054BC01A2F2803D8012019
:1009700010BD0020FCE70020FAE7C046141B002051
:1009800070B504000D00EFF3108672B60C4B1B68B7
:10099000002BFBD0BFF35F8F2000FFF7D7FF094B81
:1009A000984201D0A84205D1320029002000FFF76B
:1009B00049FF70BD044B054A8621054801F034FE0D
:1009C000240100D0CD01001050930010F8940010C5
:1009D00004930010F0B5DE4657464E464546E0B556
:1009E00089B0814601911500EFF3108A72B6744BFD
:1009F0001B68002BFBD0BFF35F8F724B0027DF57C4
:100A0000002F40DB7C00E419A4006F482418062264
:100A1000A2566C4B1A706D4B9A684B4610339B0074
:100A2000D35898461E001B1A2F2B38D9684B98456F
:100A30002FD105AE674B33807B009B46D8198000D1
:100A4000614B9846404402306349FFF70FFF7080C6
:100A5000624BB380FF23B371F571019BB3605F44B8
:100A6000BF0047440ECE0EC701231C43A04652468A
:100A700041464846FFF7E6FE09B03CBC9046994621
:100A8000A246AB46F0BD564B564AD721564801F018
:100A9000CBFD564B534ADE21534801F0C5FDC04300
:100AA00040440C2102F06AFF002912D101239E4329
:100AB000B34633000026DA79AA4211D906215956E5
:100AC00000290CDB4A00521892001E003E4B9B1876
:100AD000F1E7474B434AEA21434801F0A5FD1E00D8
:100AE000002E3AD005AB434A1A80813A5A80062339
:100AF000F3560293002B17DA3F4805AB9B469880CC
:100B0000029A9A71DD71019A0792301D2100FFF758
:100B1000ADFEB080B7717B00DB199B002A4FFF1838
:100B20005B4607CB07C7A2E77800C0198000264BB9
:100B3000C0180430321DB388D90A1C2907D15905C1
:100B40004915023149005118FFF790FED5E72B4BAC
:100B50002B4AB121244801F067FD05AE1D4B3380BF
:100B60007B000293D8198000174A90460200424445
:100B70000392901C1849FFF779FE7080039A101DAC
:100B80005946FFF773FEB0801E4B5A464146521A33
:100B9000524153431B0DB371F571019AB260029B30
:100BA0009C466744BF0047440ECE0EC7114B5A46C1
:100BB0001380813B538001231C43A04657E7C04666
:100BC000240100D07D2F0020141B002000ED00E048
:100BD000CD01001000A1FFFF441B002001BDFFFF5D
:100BE000889300104895001004930010B0930010F3
:100BF000D89300100148000001BD00004C94001083
:100C000038950010AAAA0000F0B5CE46474680B538
:100C100083B006000D00EFF3108872B6564B1B68C8
:100C2000002BFBD0BFF35F8F544B9A683400103415
:100C3000A300D758524B9F4207D0AF4200D198E053
:100C40000197504BFB1A2F2B09D94246390030002F
:100C5000FFF7F8FD03B00CBC90469946F0BD30009C
:100C6000FFF748FE814600213000FFF75FFEBFF32B
:100C70005F8FEFF30581002901D08C4211D1012350
:100C8000019C9C430022A368AB4212D00622A256CC
:100C9000002A0DDB53009B189B002200394CE418FE
:100CA000F1E73621384B394AFF31394801F0BCFCB5
:100CB0002200AB4256D106256557002D38DB6B006C
:100CC0005B199A002F4B9B189A68A260DA79E2713F
:100CD00006229A56A2719B795BB2002B0FDA2D483F
:100CE000A0806B005B199B00264AD3182A4A117812
:100CF0009971157049463000FFF718FEA5E7201DD1
:100D00006B005B199B001F4A9B181A1D9B88D90A10
:100D10001C2907D159054915023149005118FFF71F
:100D2000A5FDDDE71D4B1E4AB121194801F07CFCF1
:100D3000002912D1002A0ED0FF239371194B938002
:100D4000154A1378A371184B0E49641A6441634322
:100D50001B0D1370CEE70A4FF2E7201D1349FFF772
:100D6000A9FDC7E76A21124B084AFF31084801F084
:100D70005BFC034F69E7C046240100D000ED00E0B2
:100D8000CD010010141B0020649400106095001029
:100D90000493001001BD00007D2F00204C94001032
:100DA0003895001001BDFFFFAAAA00004E1B0020CD
:100DB00098940010F8B5012101432E4BCB1A2F2B2C
:100DC00028D8EFF30583002B2BD0EFF3108572B6F4
:100DD000294A1268002AFBD0BFF35F8F274A04001C
:100DE000244EA41B64416243120D54B2244A9268FB
:100DF0009B00D2588A421BD00022032A32D85300CB
:100E00009B189B001B49CB189B795BB2A3421FD058
:100E10000132F2E7C7211B4B1B4A49001B4801F076
:100E200003FC92211A4B184AFF31184801F0FCFBD1
:100E3000134A92681749D150174B1A7882711C7067
:100E4000BFF35F8F0C4B00221A6085F31088F8BD4A
:100E50000E005300991889007118FF278F710F4AEF
:100E60008A80E9E7D1210E4B074A4900074801F083
:100E7000DBFBC046141B0020240100D0AAAA0000FE
:100E800000ED00E0A0940010749500100493001091
:100E9000C8940010CD0100107D2F002001BDFFFF80
:100EA000D49400100022044B02E0044902C3013232
:100EB000072AFAD97047C04600E400E080808080AD
:100EC00000B583B00100064B0093052300220548BE
:100ED000FFF761FC002801DB1F23181A03B000BDD7
:100EE000DC940010822F0020024B9C466144890054
:100EF000016070474000003410B50400FFF784FC27
:100F000001002000FFF7F0FFFF232371BFF35F8F85
:100F100010BD10B50400FFF777FC01002000FFF7BB
:100F2000E3FFFF23237100236371BFF35F8F10BDC5
:100F3000034B9C46614489000160BFF35F8F70479B
:100F40004000003410B504000120FFF76BFC0100E5
:100F50002000FFF7EDFF10BD70B505000C00080084
:100F600000F0DAFE0949200000F01AFEFFF74CFC01
:100F7000074B9C466044800068602C75D0231B069C
:100F80001B786B75A400034BE55070BD9D120010DB
:100F900040000034302F00200A4B1A68EFF3108114
:100FA00072B61368002BFCD0BFF35F8F054B1B6834
:100FB000BFF35F8F00221A6081F3108840BF0020CA
:100FC000002170474C2F002010B5002922D0036863
:100FD0001B7B99421ED8174B9C46614409018368CC
:100FE0009C4661440C684968002A19D003681B7B41
:100FF0009A4215D883680F488446624412019A18B1
:1010000010685368020001208B4201D80ED00020E6
:10101000C0B210BD084B094A3C21094801F004FB4D
:10102000054B064A3C21064801F0FEFAA242EFD8E1
:10103000EDE7C046FFFFFF0F049700107499001002
:10104000CC96001010B500291ED0037B99421BD806
:101050004B005B18033B0468A4466344002919D085
:10106000002A1DD0914221D0002A25D0047BA24223
:1010700022D804685000801803382018817019782D
:1010800000291FD11A7010BD104B114A6821114858
:1010900001F0CAFA104B114A6F310E4801F0C4FA40
:1010A0000F4B0E4A70210B4801F0BEFA0D4B0B4A54
:1010B0007121084801F0B8FA044B054A6821054837
:1010C00001F0B2FA41701A70DDE7C04628970010AF
:1010D0003499001044970010909700104099001028
:1010E0009C970010A897001070B506000D00140022
:1010F000002914D0002A14D080687368984700280B
:1011000006D0220029003000FFF79CFF280007E0EE
:101110002A0021003000FFF795FF200000E01000BA
:1011200070BD0800FCE70000F0B583B00500009238
:1011300001930AAB1C780BAB1F78002C26D00368F8
:101140005A7B944207D10123002B19D1002C3BD1AB
:10115000200003B0F0BD002C0CD01A7B944209D8BB
:101160001A6863001B19033BD3189B78002BEBD044
:101170000123E9E73E4B3F4A68213F4801F054FA1A
:101180003E4B3F4A67213F4801F04EFA03689C7B83
:10119000002CDBD012D01A7B94420FD862001219B7
:1011A000033A19688C46624451789973002900D13A
:1011B000D9730023937053701370C7E72C4B2D4ADB
:1011C00068212D4801F030FA002C3AD02B681B7BA7
:1011D0009C4236D82C4BE3181B01AA689446634402
:1011E000009A1A60019A5A60089A9A60099ADA601D
:1011F0002E68002C2BD030D0337B9C422DD863003E
:101200001B19033B32689446634400229A705A705B
:101210001A70717B22003000FFF766FF7073844202
:1012200000D095E7287D009A019B00F001FD061E85
:1012300001D0002F17D00C9B002B00D188E71E7027
:1012400086E7124B124A3C210E4801F0EDF9114B92
:10125000114AA521084801F0E7F9054B054A682124
:10126000054801F0E1F92868210000F019FFE2E7E4
:10127000289700103499001044970010C097001070
:10128000AC990010CC960010FFFFFF0F04970010E0
:1012900074990010C896001054990010F0B5DE46FD
:1012A00057464E464546E0B58BB00990002308935B
:1012B0008200B54BD658370052E0B44BB44A3F21B8
:1012C000B44801F0B1F9B44BB44A3C21B44801F040
:1012D000ABF9002901D1002869D10021404600F076
:1012E000D5FEA04219D12A686B6806920793AB68B5
:1012F0009846EB689A464346002B14D0002C18D031
:101300003B681B7B9C4214D8631EFA68D35C08932D
:101310001B0218433861002015E0A24BA24A8E211F
:101320009F4801F081F9A14B9F4A92219C4801F00E
:101330007BF9994B9E4A4121994801F075F90023A8
:101340009A46984600207B68BFF35F8F00221A60A0
:1013500086F310884346002B32D1002800D10CE1DF
:1013600000F000FC02000B1EA7DB0020002106900D
:1013700007917868EFF3108672B601680029FCD0F7
:10138000BFF35F8F396888464C7B002CD7D09AD04A
:10139000097B8C4297D8874965182D01B9688C461E
:1013A000654428686968801A9941002991DD2A6896
:1013B0006B68099800F03CFC00239A469846C2E707
:1013C000089B1B022343994651461800C04705005D
:1013D0000E007A68EFF3108B72B6136859424B41D6
:1013E000D9B2002BF9D1BFF35F8F002E1EDB002E88
:1013F00046DD3B69002B47D04B456DD100F0B2FB79
:1014000002000B1E6EDB52197341002B70DB002BA8
:1014100072DB002104910131039102945146019144
:10142000414600913800FFF77FFE4CE03B69002BFE
:10143000DDD04B4514D1069A079B521BB341002BBC
:1014400014DB002B16DB002104910131039102947F
:1014500051460191414600913800FFF765FE32E0A8
:10146000554B514AA1214E4801F0DEF8012252426B
:10147000524BE6E7454B464A3F21464801F0D4F837
:10148000002E01D1002DB4D13B68002C50D05A7BE6
:10149000944237D1012100294AD1DA7B002A4DD16B
:1014A0009A7B002A03D1DA7B002A5AD19C73DC7321
:1014B000002C5CD03B681B7B9C4258D8FA68013CEE
:1014C000135D0133135500233B617A68BFF35F8FCF
:1014D00013608BF3108843E7374B334AA42130481D
:1014E00001F0A2F8294B2A4A3F212A4801F09CF832
:1014F00001225242314B8AE7244B254A3F2125489D
:1015000001F092F8002C0DD01A7B94420AD86200A8
:101510001219033A1868844662449278002ABAD0B5
:101520000121B8E7264B274A6821274801F07CF8BB
:10153000264B274AF621244801F076F8002A0AD0E3
:10154000197B8A4207D851008A18033A19688C46D9
:1015500062445470A4E71A4B1A4A68211A4801F0F1
:1015600063F81C4B1A4AFB21174801F05DF80A4B3F
:101570000F4A41210A4801F057F80BB03CBC904695
:101580009946A246AB46F0BD302F0020E4950010EE
:101590001C99001000960010049700107499001018
:1015A000CC960010E8970010C49900100098001025
:1015B00080990010FFFFFF0F0C980010FFFFFF7FC6
:1015C0002897001034990010449700104898001094
:1015D000649900106C98001010B50C4B5B68002BE0
:1015E00004D00A210A48FFF77FFC10BD074C2300F6
:1015F000084A1021206800F059FC032000F0A6FAE8
:1016000003212000FFF7A8FCEBE7C0465C1B00208D
:101610004C2F0020C90F001010B5064B5B68002B43
:1016200001D0044810BD044B044A5E21044800F078
:10163000FBFFC0465C1B00208098001094990010AE
:10164000CC960010F0B5DE4657464E464546E0B50E
:101650008BB0804616001F00149B9A46159B994636
:1016600016AB1B789B461F2302AA944663440022B4
:101670001A702CE0002809D042461268127B904272
:1016800004D8421E4146C9688A5C42E0404B414A48
:101690004121414800F0C8FF0798002B6FD05B46FE
:1016A000002B6CD04946D04704000D0003000B43CB
:1016B00000D16BE0002940DB00F054FA06000F1E59
:1016C0004BDB36196F41002F4DDB002F4FDB4346BC
:1016D0005A68EFF3108472B6136859424B41D9B27D
:1016E0000791002BF8D1BFF35F8F1F3302AA9446F6
:1016F000634404930023039302934B4601935346A0
:10170000009332003B004046FFF70EFD031EB1D1AF
:10171000020041464968BFF35F8F00250D6084F3E6
:101720001088002B29D01F2302A98C4663441B7804
:10173000002BB1D112021043AFE7361BAF41002F8F
:1017400007DB002FC3DA154B154A3F21154800F07F
:101750006BFF01267642144FF3E7104B104A3F21EE
:10176000104800F061FF012676420F4FADE70B4BAA
:101770000B4A3F210B4800F057FF012040420BB0BD
:101780003CBC90469946A246AB46F0BD0798F6E7AA
:101790000497001080990010CC960010E49500107A
:1017A0001C99001000960010FFFFFF7FF8B50400A1
:1017B000002900D162E04268EFF3108572B6136829
:1017C00058424341D8B2002BF9D1BFF35F8FCBB25F
:1017D0002268567BB3421BD10120002848D02069E3
:1017E00088422BD0090AC9B2002B2ED02068007B7A
:1017F00083422AD8581EE668305C88422BD00020ED
:101800006368BFF35F8F00221A6085F31088F8BD0C
:10181000002B0DD0167BB3420AD85E00F618033EAB
:101820001768BC466644B678002ED6D00120D4E7AF
:10183000134B144A6821144800F0F6FE2C21134B78
:10184000134AFF31134800F0EFFE134B134A4121B6
:10185000104800F0E9FE1900100000F021FC0028FB
:10186000CED199210E4B0A4A49000A4800F0DCFE0D
:1018700023698B42C4D100232361C1E70020C6E75E
:10188000289700103499001044970010A498001075
:10189000E0990010CC960010049700108099001079
:1018A000C8980010407D7047F0B587B006000F0063
:1018B000EFF30583002B1FD106246442E517A4191A
:1018C0007D418D4202D803D1844201D900240025F4
:1018D000002D14DB0494059500F044F902000B1E62
:1018E00013DBA41A9D41002D17DC14D03000390001
:1018F00000F044F907B0F0BD234800F02FFF234B60
:10190000234A3F21234800F08FFE204B204A3F21ED
:10191000204800F089FE002CE8D0FFF77DFE002370
:10192000029301931C4B0093049A059BFFF78AFED8
:10193000002818DADAE7002300E00023002BD5D1D5
:10194000164B1A68EFF3108172B61368002BFCD0A7
:10195000BFF35F8F114B1B68BFF35F8F00221A60CC
:1019600081F3108820BF0499059A0D4B5B6A9A4257
:10197000E3D80B48806A884203D29A42DBD0012325
:10198000DCE70123DAE7C046CC980010E4950010AC
:101990001C99001000960010990F00104C2F002089
:1019A0000040054070B504000D0000F0DBF80200B7
:1019B0000B1E0ADB200029008018594100290ADB90
:1019C00000290CDBFFF770FF70BD084B084A3F2170
:1019D000084800F029FE012040420749F0E7034B88
:1019E000034A3F21034800F01FFEC046E495001063
:1019F0001C99001000960010FFFFFF7F10B5FA221F
:101A000092000023002102F0F5FDFFF7CBFF10BD8F
:101A100070B584B005000C00EFF30583002B12D0E5
:101A2000244B5B6A994209D8224A926A824208D2C0
:101A3000994201D0012002E0002000E0002004B023
:101A400070BD0120FBE7FFF7E7FD00230293019340
:101A5000194B00932A002300FFF7F4FD061E11DC4A
:101A6000144B5B6A9C4209D8124A926AAA4207D276
:101A70009C4201D00120E2E70020E0E70020DEE701
:101A80000120DCE720BFFFF7C7FD3100FFF78EFE26
:101A9000084B5B6A9C4209D8064A926AAA4207D25E
:101AA0009C4201D00120CAE70020C8E70020C6E719
:101AB0000120C4E700400540990F001070B5EFF316
:101AC00005801038EFF3108472B61A4B1B68002B98
:101AD000FBD0BFF35F8F01221300834016494B6395
:101AE00016490B60164909780D00C5402A4214D0EA
:101AF000114A556A8200134E9259954206D38200CC
:101B0000114D525999430E4B197007E00A4A031DB3
:101B10009B0099589950002200E00022BFF35F8F8C
:101B2000044B0021196084F31088002A00D09047EC
:101B300070BDC046280100D0004005403C70054003
:101B4000812F0020582F00206429002010B50100AB
:101B5000024A0348FEF706FE10BDC046F899001081
:101B60007C2F0020044B5B6A034A906A1900536A79
:101B70009942F9D17047C04600400540074B5B6A67
:101B80008B4204D2054B5B6AFAE7044B5B6A8B42DB
:101B900003D1024B9B6A8342F7D370470040054054
:101BA00070B504000D00EFF3108672B61B4B1B6876
:101BB000002BFBD0BFF35F8F002D1CD02000FEF761
:101BC000C5FE174B83420BD019002000FEF7D8FE4C
:101BD00001212000FEF7AAFE0123A340114A136051
:101BE000A400114BE550BFF35F8F0C4B00221A602D
:101BF00086F3108870BDA2000B4B0021D15001224A
:101C0000A2400A490B7893430B7005492000FEF768
:101C1000FBFF00212000FEF789FEE4E7280100D049
:101C2000BD1A00103860054064290020812F002073
:101C3000F0B5DE4600B584B00400150001921E0028
:101C40000293FFF78FFF03958E4202D84ED1854253
:101C50004CD9EFF3108B72B6274B1B68002BFBD0CF
:101C6000BFF35F8F254A17780125A540EBB23B43B0
:101C70001370234B5D63221D92000199D150A20085
:101C80002049029850501B6A2B4212D11C4B1B6CEE
:101C90002B4208D00020BFF35F8F174B00221A6041
:101CA0008BF3108823E0184B184AC521184800F020
:101CB000BBFCFFF757FF8E4214D802D1039B83422F
:101CC00010D80E4B1B78BB420ED00D4B1D625D63CE
:101CD0001F2004400123A3400E4A1360074B1F70CE
:101CE0001E38D8E70020D6E70120D4E7012004B051
:101CF00004BC9346F0BDC046280100D0812F0020CF
:101D000000400540582F00201C9A0010809A0010B7
:101D1000409A001080E200E010B5EFF3108472B634
:101D20000A4B1B68002BFBD0BFF35F8F012383405E
:101D3000074A136207490A789A430A70BFF35F8F14
:101D4000024B00221A6084F3108810BD280100D0D5
:101D500000400540812F002010B500291ED0037BD4
:101D600099421BD84B005B18033B0468A4466344AC
:101D7000002919D0002A1DD0914221D0002A25D057
:101D8000047BA24222D8046850008018033820182F
:101D90008170197800291FD11A7010BD104B114A9B
:101DA0006821114800F040FC104B114A6F310E4879
:101DB00000F03AFC0F4B0E4A70210B4800F034FC47
:101DC0000D4B0B4A7121084800F02EFC044B054ACC
:101DD0006821054800F028FC41701A70DDE7C04614
:101DE00028970010489B001044970010909700100F
:101DF000549B00109C970010A897001070B5060027
:101E00000D001400002914D0002A14D080687368D3
:101E10009847002806D0220029003000FFF79CFFD9
:101E2000280007E02A0021003000FFF795FF20007E
:101E300000E0100070BD0800FCE7000010B50023B2
:101E4000437301338373037BC3730123027B9A4281
:101E500014D9002B0CD0027B934209D85A00D21817
:101E6000033A01688C4662440133DBB25370EDE7FC
:101E70000B4B0C4A68210C4800F0D6FB002A09D015
:101E8000924207D8016853009A18033A8A1800232F
:101E9000537010BD024B034A6821034800F0C4FB95
:101EA00028970010489B00104497001010B501734C
:101EB00042608360FFF7C2FF10BD000070B50400F0
:101EC000081E00D170BD002934D0237B994231D83F
:101ED0004B005B18033B2268944663445A78002AFF
:101EE000F0D02DD0237B9A422AD853009B18033B75
:101EF00021688C4663445D7800215970002825D004
:101F0000237B984222D843001B18033B21688C4650
:101F100063440021597001002000FFF76FFF0600A5
:101F200029002000FFF7CAFF020031002000FFF760
:101F300065FFC7E7084B094A6821094800F074FBB0
:101F4000054B064A6821064800F06EFB024B034A27
:101F50006821034800F068FB28970010489B001098
:101F60004497001070B505000C00160000292FD012
:101F700034D0037B994231D84B005B18033B026895
:101F8000944663445A78002A2ED19A78002A31D197
:101F90001978FFF793FF0300002E0AD0EA7B002A8E
:101FA0002ED1AA7B002A03D1EA7B002A3BD1AC7355
:101FB000EC73002B3DD1002C4FD02B7B9C424CD896
:101FC0002B6861000C19033C1C190023637070BD61
:101FD000254B264A3821264800F026FB254B264A69
:101FE0006821264800F020FB254B204A3A21204852
:101FF00000F01AFB234B1D4A3B211D4800F014FB47
:10200000002A0AD0297B8A4207D851008A18033A4D
:1020100029688C4662445470C3E7164B164A6821FF
:10202000164800F001FB184B104A4221104800F0FE
:10203000FBFA002B0BD02A7B934208D843001B18D5
:10204000033B2A689446634400229A70B3E7094B25
:10205000094A6821094800F0E7FA064B064A682158
:10206000064800F0E1FAC0469C9A0010689B0010F8
:10207000A49A001028970010489B00104497001065
:10208000DC9A0010049B00106C98001070B50400DE
:102090000A00457B2900FFF765FF6073280070BDCB
:1020A00070B50400002966D0437B8B420ED0002916
:1020B00011D0037B99420ED84B005B18033B02689A
:1020C000D0188378002B0CD1002055E00121FFF7B8
:1020D000DDFF012050E0294B294A6821294800F002
:1020E000A3FA002B1FD0227B93421CD825685A00EC
:1020F000D318033BEA18EB5C8B421AD0002B1BD0A1
:10210000227B934218D85A00D318033B2268D21876
:1021100053788B4216D0002BF0D11B4B1B4A6B21FE
:102120001B4800F081FA154B154A6821154800F04C
:102130007BFA4378137007E0104B114A682111486D
:1021400000F072FA437853700023837043700122C9
:102150002000FFF707FF0200617B814205D02000CD
:10216000FFF74CFE6073012006E00A4B074A71211D
:10217000074800F059FA002070BDC04628970010AB
:10218000489B001044970010D49400107C9B0010D2
:10219000A49A0010289B0010F8B5DE4657464E461C
:1021A0004546E0B505000F0092461E000A9B9E4280
:1021B00050D3330E994636020A9A0023300049461E
:1021C00001F01AFC80466C006419A4002F4B9C4659
:1021D00064446368834200D260602B1FDBB29B467D
:1021E000012B3DD9C0239B012343802212011A6099
:1021F000AB00274A9958002907D0506901F0BEFB6F
:10220000431C5800C0180338FDD253465A012368B6
:102210005A40E0231A4080235B0123431A605A4648
:10222000012A28D980239B012343802212011A60AE
:1022300043466360424600233000494601F0DCFB20
:10224000AD00134B585101203CBC90469946A24624
:10225000AB46F8BD0F4B104A3321104800F0E4F9AB
:10226000012FBFD1C0239B01234303221A60A3681F
:10227000DB07FCD5C9E72168794003220A401A60D0
:10228000A3680122BA401A42FAD0CBE7008000408E
:10229000802A0020949B0010EC9B0010A89B00104B
:1022A00030B583B00C2000F013F9FEF73BFA00289C
:1022B0000DD00023092B05D899002D4A2D488850B0
:1022C0000133F7E72A4B2C4A5A6203B030BD2B4B3F
:1022D00000229A6700F06EF9294B01221A60274B01
:1022E0005B6C012BFBD1274B03221A60234B9B6BAA
:1022F000012BFBD1013300930433234A01212348EE
:1023000000F054F805230093214A0121214800F0F0
:102310004DF8214B0093002202210420FFF73CFFDF
:102320001E4D00952B00002201210520FFF734FFF0
:10233000104C00942300002200210720FFF72CFFFF
:1023400000942300002200210820FFF725FF0A4BFC
:1023500000932300002200210920FFF71DFF0095B4
:102360002B00002200210620FFF716FFADE7C04634
:10237000802A0020006CDC021BB7000000800040B7
:102380003CB0004030B00040002F6859008002404F
:10239000008C864700C00240001BB70040597307FD
:1023A0008000014BC0587047802A0020F0B5C64617
:1023B00000B504000E0090461D00384801F0DEFA1A
:1023C0000700374A4244374B9A423AD80100404608
:1023D00001F0D4FA0200103A98235B009A4236D8F2
:1023E0006B1E062B39D8069B013B062B35D843467E
:1023F0001A09BA4237D32D04069B1F032F432368C3
:10240000002B36DB284B9C4244D080256D01274BA6
:102410001D60274B1D60274A92682B009343FAD119
:102420002660A060221DC0239B01134321221A6055
:102430002268002AFCDAE76008221A6004BC904691
:10244000F0BD1D4B1D4A11211D4800F0EDF81D4B3C
:102450001A4A19211A4800F0E7F81B4B174A1C21A9
:10246000174800F0E1F8194B144A2321144800F0F2
:10247000DBF822683F231340B342C3D1A3681B0596
:102480001B0D8342BED1E368EE22D2021340BB4251
:10249000B8D1D3E78025AD01B9E7C046001BB7002E
:1024A00080E84BD380F8A93200C0024000E0004031
:1024B00000F0004000C00040FC9B00101C9D00107C
:1024C0005C9C0010989C0010B49C0010009D0010B3
:1024D00080239B000343014AD3627047008005407C
:1024E000024B1A68024B5A607047C046202F0020EA
:1024F0000080054010B50200164B8020C005186012
:10250000154B1648186000290AD0154BE021C90464
:102510001960002A09D1124B802212061A6010BDE0
:102520000C4BE021C9041960F3E75001801A8000C8
:10253000801800010B4B186080235B04984202D383
:10254000084B094A1A60FFF7CBFF054B8022D205E2
:102550001A60E4E700B0054008200140FCFF0100DC
:1025600000A00540202F0020FFFFFF0010B5030052
:1025700010000C4A8024E4051460002B0DD00122C9
:102580001343094A094CD461094C5C4014625162FE
:1025900093620021FFF7AEFF10BD034B0022DA610A
:1025A000F7E7C04600B0054000800540D3C007B043
:1025B0002D3FF84F064BAA2212011A602F22DA6033
:1025C000044B054A1A60024B5B68002BFBDA70472C
:1025D000004002400060024000B0FA0000BEFDE78B
:1025E00003000A4A1268002A08D0084A1068C31873
:1025F000074A9A4206D3054A13607047034A0549C1
:102600001160F2E701204042F7E7C0461C2B002092
:102610000000042048320020002070470120404282
:10262000704710B5FFF7DAFF10B582B00C00190043
:10263000002A0CD0084B002A0BD0019200932300F3
:102640000200064802F06EFA0120FFF7C7FF044BB4
:10265000F1E7034AF1E7C046289D0010389D0010BD
:10266000349D001070B52B4B2B4A1A602B4B2C4A13
:102670001A602C4B9A682A4B9343FAD12A4C2B4B65
:102680009C4202D208CC9847F9E7FFF709FE234B9A
:10269000274A1A60234B9B68DB43DB01FAD1254BA9
:1026A00040229A675A671A67DA66234C09E0234B7F
:1026B000234A87212348FFF7B7FF2000FEF71CFCC1
:1026C0000834214B9C4209D22368002BF5D0012B02
:1026D000EDD12000FEF71DFC0834F2E71B4CA16889
:1026E0001B4DC022280002F0B7F8A560EFF3058368
:1026F000002B00D000BEFEF777F8FEF7D3FBFEF705
:102700006BFF144C144B9C4202D208CC9847F9E75B
:1027100070BDC04600E00040BFCDFBFE00F00040B1
:10272000FE7F3C0000C000404024002050240020D8
:10273000FFFFFF0100F0014038240020689D0010D9
:10274000DC9D0010889D00104024002000ED00E07A
:1027500000000020502400205C2400200FB400B5AD
:1027600083B0084802F0AEF9049B002B07D005A9FE
:102770000191180002F0B6F9034802F0A3F9012014
:10278000FFF72CFFC89D0010D89D0010704710B5B2
:10279000002802D00B684968984710BD010000204E
:1027A0000A681378303BDBB2092B08D883001B186A
:1027B0005B00501C08601078C0183038F0E7704794
:1027C000F0B5DE4657464E464546E0B583B09346E3
:1027D0001F000C9B9A460D9C0E9B99460F9B9B07D6
:1027E00003D0B8460F00060022E00192A3468846B7
:1027F0004E46B9460700B44207D2551C4B464146E7
:102800002020B84701342A00F5E73D004F465C46DA
:10281000019B9B46B1464646B84637002E0007E06E
:10282000013C551C5346185D43463900B0472A0009
:10283000002CF5D135003E0047460F9B9B0707D47F
:10284000100003B03CBC90469946A246AB46F0BD92
:10285000B0464E46B9462F005D46531BB342EFD2F9
:10286000541C4B4641462020B8472200F5E7F0B5FE
:10287000CE46474680B585B0944698460C9D0D9C43
:102880000EAB1B789946109A119B129EB7071BD46A
:10289000002B08D0F70706D54F46002F02D10C3782
:1028A000374200D0013B944208D21F2C06D8302773
:1028B0002F550134F7E730272F550134F70703D59B
:1028C0009C4201D21F2CF6D9F70615D5770505D401
:1028D000002C03D0944224D09C4222D00F9A102A7C
:1028E0002BD00F9A102A30D00F9A022A35D01F2CE5
:1028F00002D830222A5501341F2C05D84A46002A16
:1029000031D02D222A55013403960293019400956B
:1029100043466246FFF754FF05B00CBC904699460B
:10292000F0BD621E012C06D00F9F102F01D01400A5
:10293000D4E7023CD2E71400D0E7B206D1D41F2C72
:10294000CFD878222A550134D1E7B206CCD51F2C36
:10295000CAD858222A550134C9E71F2CC7D860327B
:102960002A550134C3E7720703D52B222A550134B7
:10297000CAE73207C8D520222A550134C4E7F0B58A
:10298000DE4657464E464546E0B593B081468A46F8
:10299000089209931CAB10CB1B789B461E9D219B74
:1029A0009846002C03D1102342469A439046802338
:1029B000DB0046461E4042461A4212D0002C22D06E
:1029C00000260EE03033D9B2771C0AAB99552900A6
:1029D000200000F0D3FFAC4216D31F2F14D83E00C6
:1029E00004002900200000F0C9FFCBB2092BE9D96F
:1029F0004246920605D54121C918C9B20A39C9B261
:102A0000E2E76121F8E7270043460693209B059300
:102A10001F9B049303955B46029301970AAB0093B7
:102A2000099B089A51464846FFF721FF13B03CBC6A
:102A300090469946A246AB46F0BDF0B5DE465746F5
:102A40004E464546E0B595B0089009910A920B9321
:102A50001E9E1F9C20AB1B789B46229B9946239D64
:102A6000269B9A463300234303D1103352469A43A0
:102A700092468023DB0057461F4052461A4219D027
:102A8000330023432DD0002714E03033DAB27B1C0F
:102A900098460CABDA554A462B003000210000F076
:102AA000ABFFA5421FD819D043461F2B1BD8474662
:102AB00006000C004A462B003000210000F09CFF6D
:102AC000D3B2092BE1D95246920605D54122D2183C
:102AD000D2B20A3AD2B2DAE76122F8E7B145E3D9D5
:102AE00001E00023984653460693259B0593249BBB
:102AF00004934B4603935B460293434601930CAB0E
:102B000000930B9B0A9A09990898FFF7B0FE15B03D
:102B10003CBC90469946A246AB46F0BDF0B5DE46B9
:102B200057464E464546E0B591B083468A460C92DC
:102B300098461A9C08941B9D099522002B002000A2
:102B4000290001F0E4F9002800D0E5E0012252421A
:102B5000D34B2000290001F0D5F9002800D0DBE09C
:102B600001225242CF4B2000290001F0B5F9002884
:102B700000D0D1E000220023089D2800099E3100EA
:102B800001F0AAF9002800D0DDE008980999069024
:102B900007918023DB001E9A1A400D921E9A1A425A
:102BA00001D106231C930698079904000D000A0022
:102BB0000600024300D1CDE0080D4005400DBA4C9F
:102BC000A44660440A03120BB84B13431F0001F0E4
:102BD000B1F9B74AB74B01F03CF9B74AB74B01F02E
:102BE00011F904000D000022B54B3000390001F04E
:102BF00000F9B44AB44B01F02CF902000B0020009C
:102C0000290001F0FFF801F0ADF9814601F092F9D9
:102C100004000D00AD4AAE4B01F01BF90022AD4B94
:102C200001F0F0F801F09EF90600AB4AAB4B200032
:102C3000290001F00EF904000D00300001F07AF9CE
:102C4000A74AA84B01F005F902000B00200029005B
:102C500001F0CFF804000D0002000B0001F0F9F8BC
:102C60000A900B91A04BF31800261F0522002B00A1
:102C70002000290001F0C6F80E900F9122002B00D1
:102C800000208021C90501F0B4F804000D000022E5
:102C9000964B0A980B9901F0BEF80022944B01F074
:102CA000B1F802000B000A980B9901F0B4F8002269
:102CB000904B01F0A7F802000B000A980B9901F065
:102CC000AAF802000B002000290001F09BF8020086
:102CD0000B000E980F9901F09EF80022734B01F043
:102CE00091F832003B0001F0B4F806000F00040038
:102CF0000D00069A079B01F005F900282CD001234E
:102D00005B429C46E1440022794B3000390001F0DF
:102D100082F804000D001FE01E9B04931D9B03938B
:102D20001C9B0293089A099B0092019343460C9ABC
:102D30005146584600F0F8F811B03CBC9046994610
:102D4000A246AB46F0BD069580231B069C46664412
:102D500007961EE7002399464B466333C62B1FD8C0
:102D600004261E9B1B0527D52B00234310D0624A47
:102D7000624B0698079901F0BDF8002800D183E066
:102D800000225F4B0698079901F0A6F800287BD037
:102D90001C9B4B4506DD4A46981A431E1C9303E0D4
:102DA0000526DEE700231C938023DB001E9A1A43CE
:102DB0001E920026002399461D9B9E426ED29F1BA9
:102DC00002231E9A1A400A921E9A134202D0002E23
:102DD00000D000274B46002B07D022002B0006987E
:102DE000079901F018F8069007910022002308982F
:102DF000099901F071F8002800D085E0414B1E9A36
:102E00001340049303971C9B0293069B079C00931B
:102E1000019443460C9A5146584600F085F8002E1E
:102E200000D189E71E9B9B067AD54525441C434665
:102E3000020051462800D8474B46DA179B185340EA
:102E400005220592013E0496002203920A32029264
:102E50004A46D00F019000934346220051465846FF
:102E6000FFF78DFD0A9B002B00D165E702005F464E
:102E70000C9E1D9D931BAB4254D2541C434651469D
:102E80002020B8472200F5E71C9B002B94D00D9B17
:102E9000002B91D01C9B013B1C938DE700278FE7F3
:102EA000FFFFEF7FFFFFEFFF01FCFFFF0000F03FA0
:102EB000FB799F501344D33FB3C8608B288AC63F29
:102EC0000000F83F61436F63A787D23F71A3790980
:102ED0004F930A400000E03F1655B5BBB16B02406E
:102EE000EF39FAFE422EE63FFF03000000002C40BF
:102EF00000002440000018402D431CEBE2361A3F2E
:102F000080842E41FFF7FFFF069C079D22002900C9
:102F100080200006844661440B00069207936DE70B
:102F2000652583E7100007E7F0B5DE4657464E46B5
:102F30004546E0B595B00690079193469946209F87
:102F40001E9A1F9B1000190000F0E1FF002831D1EC
:102F500001225242BF4B1E981F9900F0BDFF00286E
:102F600037D101225242BC4B1E981F9900F0CAFF74
:102F700000283DD10022B94B1E981F9900F0C2FFD6
:102F8000002850D10022B64B1E981F9900F0A4FFD4
:102F9000002848D1002200231E981F9900F09CFFB2
:102FA000002850D100239846229B5B0500D4B6E050
:102FB000002458E0229B0393219B02930323019357
:102FC000A84B00934B465A4607990698FFF7F8FB23
:102FD0000EE1229B0393219B029304230193A24BB6
:102FE00000934B465A4607990698FFF7E9FBFFE026
:102FF0000423229A1A4022990B4210D09B4B002A9C
:103000000FD00422229903912199029101920093F9
:103010004B465A4607990698FFF7D2FBE8E0944BD7
:10302000EDE70322EEE7229B0493219B0393029793
:103030001E9B1F9C009301944B465A460799069885
:10304000FFF76CFDD4E01E9A1F9B0020002100F0CA
:10305000D0FE1E901F9101239846A5E70CAB3022AD
:103060001A55013F01341F2C01D8092FF6D81E989C
:103070001F9900F077FF050000F05CFF02000B00D5
:103080001E981F9900F0B5FEFA007A4B9B181A683B
:103090005B680A920B9300F0DCFE0890099100F047
:1030A00085FF060000F042FF02000B000898099916
:1030B00000F09FFE0890099100226F4B00F022FF64
:1030C00000282ED00136300000F030FF02000B0047
:1030D0000A980B9900F006FF002801D00135002660
:1030E000002F2CD1280000F025FF02000B001E98B5
:1030F0001F9900F07EFE06000F0000225E4B00F0DC
:10310000EBFE002842D100225B4B3000390000F07A
:10311000F9FE00283AD1EB0738D5013536E006270D
:1031200046E70022544B0898099900F0D5FE002884
:10313000D6D1002E01D0F307D2D50136D0E7AA466A
:103140001F2C11D8013F0A21300000F017FC651C2C
:1031500030310CAB19550A21300000F00FFC092E5C
:1031600026D906002C00EBE7554604E00CAA3021D6
:1031700011551F0001341F2C02D87B1E002FF5D1E2
:103180001F2C03D80CAB2E221A5501341F2C14D837
:103190000A21280000F0CAFB661C30310CAB19551F
:1031A0000A21280000F0C2FB051E05D03400EDE71F
:1031B0002B0055461C00DEE734000323229A1340FF
:1031C000012B1CD01F2C06D84346002B32D00CAB51
:1031D0002D221A550134229B0393219B02930194C3
:1031E0000CAB00934B465A4607990698FFF7E8FA4E
:1031F00015B03CBC90469946A246AB46F0BD219B1B
:10320000002B13D04346002B02D10C3313420FD0B6
:10321000219B013B2193190003E00CAB30221A558E
:1032200001348C42CED21F2CF7D9CBE72199F8E795
:103230002199F6E7229B5B0704D50CAB2B221A558C
:103240000134C8E7229B1B07C5D50CAB20221A55B9
:103250000134C0E7FFFFEFFFFFFFEF7F65CDCD41FA
:1032600065CDCDC1F89D0010FC9D0010F09D0010B3
:10327000EC9D0010E89F00100000E03FF0B5DE4636
:1032800057464E464546E0B593B082468B4690463B
:103290001193002900D1ECE200275546119B1878C4
:1032A000002800D1E8E2252809D07C1C43463A00DA
:1032B0005946A847119B013311932700EEE70133CC
:1032C000119300241DE00B00303BDBB2092B37D9F2
:1032D0002A293AD000230A93119B1A782E2A44D027
:1032E00000239A46119A1378683BD9B2122900D963
:1032F00080E08B00CB49CB589F4601231C43013211
:103300001192119A11780B00203BD8B21028DAD80C
:103310008300C548C3589F4602231C4301321192C3
:10332000EFE704231C4301321192EAE708231C4310
:1033300001321192E5E710231C4301321192E0E7BC
:1033400011A8FFF72BFA0A90C6E71C9B1A1D1C92C6
:103350001868002804DB0A90119B01331193BBE726
:1033600002231C4343420A93F6E78022D20014430F
:103370005A1C11925A781300303BDBB2092B04D946
:103380002A2A07D000239A46ACE711A8FFF706FACD
:103390008246A7E71C9B1A1D1C921868002804DBB4
:1033A0008246119B013311939CE70020F8E78023AC
:1033B0005B002343511C119152786C2A01D01C00F0
:1033C00018E0C0239B001C430131119112E08023BF
:1033D0002343511C11915278682A01D01C0009E046
:1033E000C0231C430131119104E080235B001C4386
:1033F00001321192119B18780300253BDAB2532A4F
:1034000000D92CE29300894AD3589F4680239B0021
:103410001C4301321192EDE780235B001C43013213
:103420001192E7E7782809D0582838D06F2838D08B
:10343000622838D010239C430A2600E01026582822
:1034400033D0692803D0642801D00C22944363054B
:1034500001D50122944369282AD0642828D0A305E5
:1034600000D59FE0E30500D5B8E0630600D4CAE0CC
:103470001C9A111D1C911168FF220A4005940A9B99
:10348000049353460393029600230193009243460C
:103490003A0059462800FFF772FA070027E0102685
:1034A000CDE70826CBE70226C9E720221443C8E768
:1034B000A30520D4E30550D4630666D51C9A111DDC
:1034C0001C911168FF220A40D317D1185940059466
:1034D0000A9B0493534603930296D20F01920091E4
:1034E00043463A0059462800FFF749FA0700119B66
:1034F00001331193D2E61C9BDA1D07218A43110088
:1035000008311C91116853689C46DB170C930D938E
:103510000C9A0D9B100048400E90624653400F934A
:103520000E980F990C9A0D9B801A99410E900F914D
:1035300008940A9B07935346069304960023059329
:103540006346DA0F02920090019143463A005946D1
:103550002800FFF772FA0700C9E71C9A111D1C9199
:103560001268D317D118594005940A9B0493534607
:1035700003930296D20F0192009143463A005946B6
:103580002800FFF7FCF90700B1E7230605D51C9AD0
:10359000111D1C910023D25E96E71C9A111D1C91EF
:1035A000126891E71C9BDA1D07218A43110008313C
:1035B0001C9108940A9B0793534606930496002394
:1035C00005930293136854680093019443463A00AC
:1035D00059462800FFF731FA070088E71C9A111DA9
:1035E0001C9105940A9B049353460393029600236F
:1035F00001931368009343463A0059462800FFF7A9
:10360000BEF9070073E7230606D51C9A111D1C910D
:1036100012681204120C31E71C9A111D1C911268D9
:103620002CE7C046049E0010509E0010949E00108F
:1036300046281AD01C9B0733072293431A000832EE
:103640001C9204940A9A0392524602925C681B6888
:103650000093019443463A0059462800FFF764FC62
:103660000700119B0133119318E620231C43E1E767
:10367000672801D0472802D180231B011C4345281D
:1036800001D0472801D120231C431C9B073307226C
:1036900093431A0008321C9204940A9A03925246E9
:1036A00002925C681B680093019443463A005946B5
:1036B0002800FFF733FA0700119B01331193EDE562
:1036C00002231A002240924623421FD001241C9B51
:1036D0001A1D1C927A1C9146187843463A005946A6
:1036E000A8475346002B16D1119B013311934F4627
:1036F000D4E5561C434659462020B84723003200E3
:103700005C1C9D42F5D83D001700E0E701233A001C
:103710002F000A9DF4E74A46A9460A9D06E0571C79
:10372000434659462020C84734003A00661CA5424B
:10373000F5D84D469146D7E71C9B1A1D1C921B6875
:1037400099465346002B00D1013B4E4601E001361D
:1037500013003278002A02D05A1E002BF7D14B46B4
:10376000F21A10928023DB0026001E401C4203D078
:10377000524501D95346109302231A0022400B925E
:10378000234205D03A0037004C46A946554620E072
:103790003A00109B5F46B3462E0006E0551C434698
:1037A00039002020B04723002A005C1C0A99994266
:1037B000F4D835005E46BB46109437004C46A94607
:1037C000554606E01D000134561C43465946C8477D
:1037D00032002078002804D0002FF4D06B1E002D7A
:1037E000F0D117004D460B9B002B03D1119B0133E9
:1037F000119353E50A9F109B06E0561C4346594619
:103800002020A847230032005C1C9F42F5D81700F7
:10381000ECE721231C431C9B1A1D1C921B68009380
:103820000594082304935346039310230293002323
:10383000019343463A0059462800FFF7A0F80700D5
:10384000119B0133119329E57C1C43463A005946EC
:103850002520A847119B0133119327001EE57C1CEE
:1038600043463A005946A847119B0133119327005C
:1038700014E50B4B9A460FE5AA4647450DD3434640
:103880005A1E434659460020D047380013B03CBC6E
:1038900090469946A246AB46F0BD3A00F1E7C046D5
:1038A0008D27001000B585B002900391012100938F
:1038B00013004A4202A90248FFF7E0FC05B000BD30
:1038C0008F27001001480421014B1847901B00204E
:1038D000F538001010B5010018231B881422108839
:1038E000984710BD10B5010018231B8816221088B8
:1038F000984710BDF0B5C64600B507000E0000257C
:103900000123984600E00135B5420AD2AC003C19CB
:103910002068FFF7DFFF20600028F4D100239846DD
:10392000F1E7404604BC9046F0BD0000124A936F98
:103930009B0815D29066D166002905D0FFE7FFE706
:10394000FFE7516F106F704704B580210906C21759
:103950005140002800D0C84305F0C6FB002104BD3B
:10396000F0B5146E556E576F166FFFF7E3FF1466D0
:10397000556657671667F0BD000000D0114A936F77
:103980009B0813D210665166002905D0FFE7FFE7B8
:10399000FFE7516F106F704704B5002801D0002079
:1039A000C04305F0A1FB002104BDC046F0B5146E74
:1039B000556E576F166FFFF7E5FF1466556657672C
:1039C0001667F0BD000000D094464A4A926F9208F4
:1039D000624601D228E0C046F0B5464E346E756EA0
:1039E000776F366F00F020F89446424A14665566A9
:1039F000576716676246F0BD94463E4A926F92083A
:103A0000624601D254E0C046F0B53A4E346E756E4F
:103A1000776F366F00F04CF89446364A1466556658
:103A2000576716676246F0BD002B24DB11D00029D2
:103A30003EDA00B5C943404200D1013100F038F808
:103A4000C943404200D10131DB43524200D101332E
:103A500000BD002AEBD1002801D1002905D00020AB
:103A6000C90FC90701D1C043410800B505F014FBD7
:103A70000022002300BD00B500290ADBDB435242CF
:103A800000D1013300F014F8C943404200D10131A4
:103A900000BDC943404200D10131DB43524200D155
:103AA000013300F005F8DB43524200D1013300BD81
:103AB000002923D1002B18D1002A0CD0BC460D4F71
:103AC00038667A6600210023FFE7FFE7FFE77A6F99
:103AD000386F67467047002801D00748010000B5DD
:103AE00005F0DAFA0022002300BD02000B000020DE
:103AF00000217047000000D0FFFFFFFF002B00D027
:103B0000BFE0130C28D1002AE7D080B4114F3966EA
:103B10007A66FFE7FFE730B4040C7B6F396F1B0454
:103B200023433B667A66FFE7FFE7FFE7C04684B2C0
:103B30007B6F3D6F1B0423433B667A66FFE7FFE71D
:103B4000C04600232C042D0C7A6F386F0019694190
:103B5000B0BC7047000000D0F0B594460025140EAC
:103B600001D112020835140F01D112010435940F4E
:103B700001D192000235D40F01D152000135D40B8E
:103B80000134254F7C66254C3C660E0C93B2FFE752
:103B9000FFE7FFE73C6F6643360C7703BE4673438F
:103BA000DF0B5B04C01AB941130C7343DB18C91A4D
:103BB000CE086643360CB64493B273431F0F1B0105
:103BC000C01AB941130C73431F0B1B05C01AB9412E
:103BD000860D8F023E436643360C092D24DB520AC4
:103BE0007243801A7703460A6643360C16235B1B22
:103BF000DE40DF40BF1964466643821B70460435D1
:103C000006330100D940A840C01900D30131A242B7
:103C100006D20023F0BD0000000000D0FFFFFFFF30
:103C2000121B0130F3D3F1E709277F1BFE406446E6
:103C3000A2B27243801A00D20139220C7243130CD3
:103C40001204821A99410B007046043513370100A3
:103C5000F940A840801900D30131002B02D1A242C3
:103C60000AD2F0BD013000D30131121BFAD2013B60
:103C7000F8D1A24200D2F0BD013000D30131121BB5
:103C8000F7E7F0B51C0C00D080E00CB400251C0A4E
:103C900004D11B02160E3343120208351C0B04D14B
:103CA0001B01160F3343120104359C0B04D19B00FA
:103CB000960F334392000235DC0B02D192185B4120
:103CC00001351C00971864410134464F7C66464C10
:103CD0003C660E0CFFE7FFE7FFE7C0463C6F66431C
:103CE000360C7703BE4697B27743C01B00D201392A
:103CF000C01B00D201399FB27743C91BC91B170CE7
:103D000077437E04FF0B801BB941CE086643360C17
:103D10000C2D33DBB644120B1F053A431B0B97B235
:103D20007743C01B00D201399FB27743C91B170CE0
:103D300077433E043F0C801BB941860D8F023E4302
:103D4000664329277F1BFE400C3D7746AF40BF19D5
:103D500030BCA2B2ABB272437343801A9941220CB9
:103D60007243130C1204801A994102000B000137B0
:103D7000001BA941F9D2781E0021F0BD0C277F1B42
:103D8000FE4077467F0BAF40FF19E0E700245D1C43
:103D900007D0144F7D663966FFE7FFE7FFE7FFE7CF
:103DA0003C6F95B29EB265436643401BB141150C12
:103DB0001E0C6543664336042F0C3E432D04401B06
:103DC000B141994204D202000B0020000021F0BD55
:103DD00001D19042F7D3801A994101349942F2D32C
:103DE000F6E70000000000D0FFFFFFFF4840414021
:103DF000484018B41B4B5B68FC46019308BD04DFC8
:103E0000C740001018B4174B1B68FC46019308BD4F
:103E100000DFD14000109446134A926F920809D2F5
:103E2000624618B40F4BDB68FC46019308BD0CDFFB
:103E3000894300100C4AF0B5146E556E576F166F1B
:103E40006246FFF7EEFF084A146655665767166725
:103E5000F0BD18B4034B9B68FC46019308BD08DF16
:103E60002D420010842F0020000000D0FFB55040EC
:103E70004240504059404B40594000E0FFB5154F7B
:103E80004C00640D03D0BC4204D10C0314D80020B4
:103E9000090D09055C00640D03D0BC4204D11C036C
:103EA0000AD800221B0D1B0501264B4009D44B40AC
:103EB00003D58B4200D18242FFBD9942FCD1904292
:103EC000FFBD0B43DB1803431343F5D0C943491827
:103ED000FFBD0000FF07000000B5FFF7CFFF8041E6
:103EE00000BDC04600B5FFF7C9FF01D9002000BDE5
:103EF000012000BD00B5FFF7B9FF01D9002000BDCA
:103F0000012000BD00B5FFF7B1FF804100BD0120D9
:103F100040054A00121804D85A00121801D800208F
:103F200070470120704700207047000000210028E2
:103F300005D17047C1174840401AFAD0C90713B5D8
:103F4000064B1B6898470CBC441CA2401005120B82
:103F50000349091B09051943114310BD482F0020CF
:103F60001F04000010B54C00620D8023D218DB0046
:103F7000D21A5B057E2A10DD9E3A13DACC170903AC
:103F8000490819435242D140640001341532202AB5
:103F900005DAD0400843604310BD002010BD08463C
:103FA000604310BDC80FC018013810BD18B4044BD1
:103FB0005B6AFC46019308BD24DF39450010000010
:103FC000842F002070B513231C78012C0CD0012CF9
:103FD00013DC022C02DC1F4A1F4B9A641F48FFF7B8
:103FE00079FC1F4B186070BD00231F2BEFD8990080
:103FF0001848194A88500133F7E71A48FFF772FC4E
:1040000005001948FFF76EFC023803789B007F2BF0
:1040100019DD80222900104800F01EFC022CD8D1A6
:10402000124B1A88B5231B029A4209D1104B1A88E9
:10403000104B9A4204D1104B1A88104B9A42C8D0A8
:104040000020FEF78BFB0E4B0E4A32210E48FEF786
:10405000EBFAC0468D400010842F00204C33000046
:10406000482F0020534400005346000054380000FD
:10407000D8380000494600009C380000594600002E
:1040800038A00010D4A000108CA0001007B5604626
:10409000002800D100BE01880A0A0230DF2AFAD1C6
:1040A000C9B2820804D3028840880004104300E0AB
:1040B0000068024A5050039007BD0000842F002082
:1040C0000FB403BC0CBCF0B50124E407634000E06E
:1040D000F0B50C0DCF0F661E3605891B640503D3A2
:1040E000C943404200D30131640D03D0661CF60A77
:1040F00007D0E41B00207F00791C89078912803CCF
:1041000024031D0DDF0F6E1E36059B1B6D0503D3AB
:10411000DB43524200D301336D0D03D06E1CF60A0F
:1041200007D0ED1B00227F007B1C9B079B12803D6C
:104130002D032F1B661B58D4A446202E46DA2037A9
:104140001400BC401D00BD40F24033412A4380189A
:104150005941CB0F05D0C943C043002264425041AE
:10416000514162464D0D28D10D0D07D100281FD0B9
:10417000241940414941013A0D0DF9D0640006D39C
:10418000013000D30131002C01D140084000013A38
:104190000BD4941CE40A04D112051144DB07194422
:1041A000F0BDD907204B194300E0D9070020F0BD2E
:1041B0000029DDD1002CDBD1F0BD0132C60740085B
:1041C000CD0728434908002EE1D0D9E73C2E29DA53
:1041D000203E40371400BC4000D00124F24014437C
:1041E0001A00BB401C43D317ACE7AC46202F08DABB
:1041F00020360400B4400D00B540F8403941284352
:10420000A5E73C2F0CDA203F40360400B44000D034
:104210000124F84004430800B1400C43C117EAE709
:1042200010001900002494E70000F07FF0B50C0D99
:10423000661E3605891BE60A6405640D02D0651CFE
:10424000ED0A04D0002001210905803C2403A44686
:104250001C0D671E3F05DB1BE70A6405640D02D0D9
:10426000651CED0A04D0002201231B05803C2403B9
:104270007740644497B484B296B27443070C7E438B
:10428000150C6F4380B26843361802D30120000436
:104290003F183004350C00197D41844688B29AB22B
:1042A00050430C0C62431F0C7C438EB27E43921928
:1042B00002D301263604A4191604170C36186741D8
:1042C00001BC81B29AB25143040C62431B0C5C43A3
:1042D00080B25843121802D301200004241810049D
:1042E000130C401863412D185E410020474106BC65
:1042F00088B293B258430C0C6343120C544389B2F6
:1043000051435B1802D301210904641819041A0CE3
:10431000091862416D1856410020474118BCF90246
:10432000720D1143F0026A0D1043ED020A0D03D124
:104330006D1940414941013B124E9B1B7600B3422F
:104340000ED26D0007D30130002671416646354319
:1043500001D1400840001B05C918E4072144F0BD05
:104360000BDA013306D1013004D101314F0D01D0F8
:104370004908F2E7E1070020F0BD013631050020D1
:10438000EBE70000FF030000F0B51C0D671E3F05C2
:10439000DB1BE70A6405640D02D0661CF60A04D034
:1043A000002201231B05803C2403D0252D06002676
:1043B000F6432E661E096E66CE0FF619B446490006
:1043C0004F0D02D07E1CF60A03D000200021403F92
:1043D0003F033E1BB600B444013F7F05C91B49089B
:1043E0002E6F013676089C02950D25437543ED131B
:1043F0007543AD1301356D10F603761B0CB4CC027A
:10440000450D2C43A2B2B3B25A43270C7B43350C63
:104410006F43A4B26C431B1902D3012424043F1937
:104420001C041D0CA4187D4124196D41009A91B201
:10443000ACB26143170C7C432B0C5F4392B25A43DE
:10444000A41802D301221204BF182204230C52180C
:104450007B41019C6C431B19520ED9010A43440154
:10446000A01A81B2B2B2514303145A43360C7343BB
:1044700087B27743D617D21900277E4136049B199D
:104480001704160C7F185E417316ED18F301002611
:1044900080337541A90F06D16400690AE8055B0AFB
:1044A000184309D22FE00422944480337541A90AAD
:1044B000A8059B0A184326D3404149412404009A89
:1044C000019B0D005543641B4343E41A95B286B229
:1044D0007543170C7E43030C5F4392B25A43B618E0
:1044E00002D301221204BF183204330C52197B414B
:1044F00052429C41002C02D400220130514140081C
:10450000CA071043490802B06246D7079210084B09
:10451000D218084B9A4203D212058918C919F0BD66
:104520000020002A01DC3900F0BD01331905F5E750
:10453000FD030000FE070000002200B5203200F05D
:1045400004F8080000BD000000220B150AD410B5C5
:10455000944600F031F81414013400DA0021CB172E
:10456000144C20470020002170476244343A0CD498
:104570000C2A07DA04009140904052422032D44085
:10458000214310BDD843D94310BD203207D40C4677
:104590009440524220321141D040204310BD0800C7
:1045A000C917203203D452422032104110BD1800E6
:1045B000190010BD6B4500100A0DCC0F531E1B05D2
:1045C000C91A520503D3C943404200D30131520DE9
:1045D00003D0531CDB0A07D0121B00206400611CAF
:1045E00089078912803A1203014BD21A70470000E2
:1045F000FF03000051434343C9188C46110C83B29A
:104600004B4310B4040C614392B280B250436243F6
:104610001C041B0C001910BC59411304120CC018C7
:1046200051416144704700004840414048400023E8
:104630009C46114B5B68184700239C460E4B1B6839
:1046400018470E4A936F9B0804D200239C460A4BDE
:10465000DB681847F0B5146E556E576F166FFFF78D
:10466000F4FF064A1466556657671667F0BD0023C7
:104670009C46014B9B68184784300020000000D006
:10468000491A002808D1084670470000C10FC90721
:1046900000D54042002817D0F44603B40B4B1B68EA
:1046A000984706BC81409E384042803107D20B06B5
:1046B00007D04900490AC00510430843604701304C
:1046C000F8E7490A8902F5E770470000482F002003
:1046D00000239C46014B5B6A184700008430002091
:1046E00070B513231D782A48FFF7FCF80400012D4C
:1046F00011D0012D09DDA31E1B789B007F2B40DD0F
:1047000080222100234800F0A7F82348FFF7E2F8B1
:10471000224B186070BD542201001E4800F09CF826
:104720001F4B1A881F4B9A421CD1A7239B011A8842
:104730001D4B9A4216D11D4B1A881D4B9A4211D11E
:104740001C4B1A8894239B019A420BD11A4B1A884E
:104750001A4B9A4206D11A4B1A681A4B9A4201D147
:10476000152307E01848FDF7F9FF99001748094A93
:10477000885001331F2BF8D9144A064B1A62DA61AC
:10478000B7E7134B134A42211348FDF74DFFC046CC
:1047900053460000843000204C330000482F002096
:1047A000EE290000C40F0000C20D0000962B00008F
:1047B000C0B50000182B0000CC2A000010B5000086
:1047C000FC2C000051ED8764349D0010DD47001083
:1047D000E8A0001064A100101CA1001007B56046FD
:1047E000002800D100BE01880A0A0230DF2AFAD16F
:1047F000C9B2820804D3028840880004104300E054
:104800000068024A5050039007BD00008430002029
:1048100010B5040003F072FE002804D00419034B05
:104820009C4200D810BD0248FDF798FF000004200C
:1048300078A1001010B503F06BFE10BD01480421F3
:10484000014B1847A01B0020F5380010014B1B68D6
:1048500018470000A01B0020014B5B6818470000B0
:10486000A01B002010B50300080011001B6898472A
:1048700010BD0000F8B507000D001600437D002BA9
:1048800002D0002400200CE00368110028009847A3
:104890002DE03B7D10E0022115483B689847601CE5
:1048A0000134B44214DA002CF3DD2B19013B1B78E0
:1048B0000D3B5A425341DBB22A5D0A2AF0D1002B4C
:1048C000EED1A042E7DA211A28183B689847E2E7C0
:1048D000B04203DA311A28183B689847002E06DDEB
:1048E000AD19013D2B780D3B5A4253413B75F8BD44
:1048F00008A2001070B505000368002B16D00C4B01
:104900001C6805E0290004C92000FFF7B3FF2469F3
:10491000002C09D02368002BF9D0064B1B68002B14
:10492000F0D0A342F3D1EDE700232B6070BDC04669
:10493000102B0020182B002070B505000C000B6810
:10494000802B05D021684B1C23606418257170BD35
:104950000800FFF7CFFFF5E710B5FDF703F90200F8
:104960000B1E0BDB0D48002112184B41002B0BDBFB
:10497000002B0DDB0A4804F0EFFB10BD094B0A4A7F
:104980003F210A48FDF750FE01225242084BEFE753
:10499000044B054A3F210548FDF746FE40420F0003
:1049A00038240020E4950010F0A1001000960010BB
:1049B000FFFFFF7F10B5024804F066FB10BDC04644
:1049C00038240020F0B5CE46474680B583B00600B7
:1049D0000D0090461C00FFF7BFFF81466B1C05D001
:1049E000002C08D0194F1A4B1C6807E0300004F067
:1049F000BDF90500F4E7174FF5E72469002C17D03F
:104A00002368002BF9D0144B1B68002B01D0A34264
:104A1000F3D12A0031002000B8474346002BECD0E8
:104A20006B46D91D0A230B7001222000B847E4E72A
:104A30004B46002B07D1681E8541E8B203B00CBC81
:104A400090469946F0BDFFF7B5FFF4E765480010C2
:104A5000102B002075480010182B002010B582B0D4
:104A600004006B46D81D0470002300220121FFF7CB
:104A7000A9FF200002B010BD094A1368002B0BD01B
:104A8000834202D010331A00F7E7002907D10369E7
:104A900013600023036102E0002900D0106070471A
:104AA000102B002010B5064B1C6800E02469002C78
:104AB00004D06368002BF9D09847F7E710BDC046D3
:104AC000102B002070B5050004F050F904000023FD
:104AD000012201002800FFF775FFFFF7E3FF200028
:104AE00070BD000070B5A2B004000E00FFF734FFE7
:104AF0000500002301933300220001A90848FEF7B6
:104B0000D1FE040001A8FFF7F5FEFFF7CBFF002D53
:104B100002D1200022B070BDFFF74CFFF9E7C0467C
:104B2000394900100FB400B583B004A901C901913F
:104B3000FFF7D8FF03B008BC04B0184710B500F069
:104B400035F910BD70470000014B00221A70704704
:104B50007E2F00204B79FF2B0CD18B79002B0BD1B2
:104B6000CB79012B0AD1082A0AD98A78054B1A7009
:104B7000092000E0002070470020FCE70020FAE751
:104B80000020F8E77E2F00200120704770B5012932
:104B90002BD1117953791B020B43154909788B42AC
:104BA00001D0002022E05378012B03D0022B15D036
:104BB00000201BE09378D27812021343D2050BD564
:104BC0005A0A012595407F241C400A48FEF782FEC0
:104BD00003002100280098470025F4E76422002103
:104BE0000020FDF7C3FC012000E0012070BDC0469D
:104BF0007E2F0020554200000123037000487047BB
:104C00000CA2001010B50B784A7812021A438B7868
:104C10001B041A43CB781B0613439622D2009342FF
:104C200000D010BD0348FEF755FE03000021080028
:104C30009847C04655420000024B1860024B19606D
:104C40007047C046742A0020782A002010B5024B15
:104C50001878FBF773FE10BD7F2F002070B5124B44
:104C60001B68002B1BD0EFF3108272B61968002965
:104C7000FCD0BFF35F8F0C494A6000230B480370E0
:104C80000968BFF35F8F0B6082F310880024002552
:104C9000074B1878FBF752FE2000290070BDFA245C
:104CA000A4000025F4E7C046282F0020802F002014
:104CB0007F2F002010B584B000212C4804F024FA86
:104CC000002838D12A4B1B68002B3CD0EFF3108210
:104CD00072B619680029FCD0BFF35F8F24494A607F
:104CE0002448037801246340DBB20124047009687E
:104CF000BFF35F8F0020086082F31088002B22D062
:104D0000FCF78AFC0400FCF72DFF02000B1E1CDBE5
:104D1000FA208000002112184B41002B1BDB002BD6
:104D20001DDB012102910021019113490091200016
:104D3000FCF788FC07E001200021404201F0E8F880
:104D40000A4804F0A1F904B010BD0C4B0C4A3F21F5
:104D50000C48FDF769FC012252420B4BDFE7074B81
:104D6000074A3F210748FDF75FFCC046502F00204F
:104D7000282F0020802F00205D4C0010E4950010AB
:104D800088A2001000960010FFFFFF7F10B5054BB2
:104D90001868002804D0044B1968002200F0E4FDD4
:104DA00010BDC046742A0020782A002010B584B0B7
:104DB000D0231B061C68FCF72FFCFCF773FDA042F8
:104DC0002AD1324B1B7801F089FD3148FCF794F869
:104DD0000120FCF775F8C0B22E4C20702E49FBF76D
:104DE000CFFD20780121FBF7A1FD0520FBF7B6FDE3
:104DF000041E17D0002229490520FBF7EBFDFBF725
:104E000003FD01002648FCF793F801212548FFF730
:104E100033FE200004B010BD234B244AB2212448A5
:104E2000FDF702FCFCF7F8FB0400FCF79BFE020018
:104E30000B1E1BDBFA208000002112184B41002BB7
:104E40001ADB002B1CDB0121029100210191194981
:104E500000912000FCF7F6FBC443E40F0822002178
:104E60000F48FFF7F3FC002CD3D0CEE7124B134AC8
:104E70003F211348FDF7D8FB01225242114BE0E7D6
:104E80000D4B0E4A3F210E48FDF7CEFBE0AD001062
:104E9000502F00207F2F0020B54C00104D4C0010EB
:104EA000282F0020B01B002098940010A0A2001012
:104EB00024A200105D4C0010E495001088A20010A0
:104EC00000960010FFFFFF7F10B5002001F026FACA
:104ED00010BD000070B505000C00FFF7F5FF0028BD
:104EE00045D0002001F03CFA002843D0FCF73AFE00
:104EF00002000B1E21DB2248002112184B41002B1F
:104F000021DB002B23DB1F4804F026F9002834D0D6
:104F1000FFF7DAFF002804D0002001F021FA002872
:104F20001BD101200021404200F0F2FF0324644223
:104F3000144804F0A9F8200070BD134B134A3F2118
:104F40001348FDF771FB01225242124BD9E70E4B79
:104F50000E4A3F210E48FDF767FB22002900002082
:104F600001F00AFA041EE3D103246442E0E70324BB
:104F70006442E0E703246442DDE703246442DAE7A5
:104F800040420F00502F0020E495001088A200102E
:104F900000960010FFFFFF7FF0B5C64600B58046C3
:104FA0000C00FCF7DFFD02000B1E0FDB3748002171
:104FB00012184B41002B0FDB002B11DB344804F09F
:104FC000CBF8002812D104BC9046F0BD314B324AD8
:104FD0003F213248FDF728FB01225242304BEBE7DC
:104FE0002C4B2D4A3F212D48FDF71EFBFFF76CFF90
:104FF000002849D12B4B002000211860596024481B
:1050000004F042F8DFE701200021404200F080FF79
:10501000002001F0C5F9FFF757FF0028EFD000206E
:1050200001F036FA002820D0A542E8DA661B0020FD
:1050300001F02EFA0200864200DC3200002AE2D0A3
:1050400043465919002001F007FA0600012000210B
:10505000404200F05DFF002001F0A2F9AD19FCF71D
:1050600081FD104B18605960DEE7FCF77BFD0D4BAE
:105070001E685F680C4A002392197B419942BED892
:10508000D2D19042D0D9BAE70025CDE740420F00F7
:10509000502F0020E495001088A200100096001008
:1050A000FFFFFF7F6025002020A107000048704718
:1050B00030A3001000487047DCA2001010B50400B7
:1050C000154B1B78002B0ED0002C11D1134B144A1A
:1050D0005A80012301335B001BB2C02292001343AC
:1050E0000E48038010BD11210B4800F025F8EBE7B6
:1050F000052C0ED8A4000B4BE4580023122BE9D842
:10510000E25C002AE6D00133590004484252DBB287
:10511000F4E70020E6E7C046682F0020E82A0020D8
:105120000904000044A3001010B5024800F034F850
:1051300010BDC046402F002010B5002901D000232B
:105140000AE0114B114A1F311148FDF76DFA002496
:105150000DE03732C25401334A1E9A420FD90F2B49
:105160000DD85A080B4CA25CDC07F0D40424224171
:1051700014000F222240092AEBDC3032EAE7C01883
:105180000023037010BDC0465CA30010A8A300104C
:1051900064A30010402F002070B588B0040004AD57
:1051A000002604960922002105A8FFF74FFB009670
:1051B0000922002101A8FFF749FB4B232B700D2288
:1051C0006946280003F058FF002304E05A1D694691
:1051D0008A5CE2540133072BF8DD08B070BD000093
:1051E00003007F201840DB094000C0184001014B3C
:1051F000C0187047202B002010B5038B3F333F228F
:105200009343022915D0124C2268C260D318236040
:105210009C0610D10F4C6240634080246401A3427D
:105220000FD88906114380231B0619434368196070
:1052300010BD5B00E7E7084B084A54210848FDF71A
:10524000F3F9084B054A56210548FDF7EDF9C0462C
:10525000242F00200000105030A5001008A60010D8
:1052600060A50010B4A50010F8B505000E001400EC
:10527000FFF7B6FF7F232B40EF0985707A427A4112
:1052800042700022C2700683C476012F0DD0DA006E
:1052900012498C4662448260826800211160002BB2
:1052A00009D143600E4BC360F8BDDA000D498C464E
:1052B00062448260F0E7012F09D0013BDB000A4A1B
:1052C0009446634443602100FFF796FFECE7013BFF
:1052D000DB00064A944663444360F4E784001050C0
:1052E00000011050800010500C00105008001050A9
:1052F00070B50C001500FFF773FF2A00210000F0C5
:105300000DF970BD10B5002804D101210520FBF76F
:105310000DFB10BDD521034B034A49000348FDF79F
:1053200083F9C046FCA5001028A6001060A5001057
:1053300010B5002805D1002200218020FFF7D8FFFA
:1053400010BDDB21024B034A49000348FDF76CF90D
:10535000FCA5001038A6001060A50010024B8022AA
:105360005202DA647047C0460020115070B5041E26
:1053700026D100F0ADF8164D0C23AB67FF2215497E
:105380000520FBF727FB402200211348FFF75EFAB8
:10539000002240210020FFF767FF002240218020EB
:1053A000FFF762FF03F060FE01232B6480239B055F
:1053B000EB649023094AEA502000FFF7CFFF70BD4D
:1053C0008621074B074AFF310748FDF72DF9C046F4
:1053D00000001150AD040020202B002010D001004F
:1053E000FCA500101CA6001060A500100B785B0641
:1053F00002D14B78052B00D070478A78014B1A6098
:10540000FAE7C0460000115010B50B0000280DD17E
:105410000A794979090211434905490DDA78920759
:10542000920F9878FFF720FF012010BDFC21034B5D
:10543000034AFF310348FDF7F7F8C046FCA500100A
:1054400048A6001060A5001010B503F00DFE10BDB9
:1054500010B50400080011001A00002C03D1FFF75A
:1054600047FF012010BD034B034A04490448FDF7E0
:10547000DBF8C046FCA5001058A600100A02000088
:1054800060A5001010B508004B0605D1CB09012B13
:105490000AD00222054B9A66FFF7A2FE8022120173
:1054A000002103F091FE10BD0122F3E7002011500E
:1054B00010B508004B0600D110BDFFF791FE002388
:1054C000C3700022014903F07FFEF5E7FFF7FFFFFD
:1054D00010B580235B040C4A13600C4A13600C4B1C
:1054E0009A6880235B049343F9D10A4C9C220021E3
:1054F0002000FFF7ABF98022520100210648FFF798
:10550000A5F90923636710BD00E0004000F00040EA
:1055100000C00040000011500000105070B50400A1
:105520000D001600837E002B17D1A6820023E38294
:105530000133A3762561200003F036FE002804D055
:10554000094A902380218902D150200003F044FEB3
:10555000002805D00123237770BD03F01DFEE4E78A
:10556000200003F001FEF7E70020115070B50500A0
:1055700000240CE063001B19DA00184B1B689B1811
:10558000002B2AD05B68280098470134E4B2144B02
:105590001B78A34210D3134A002A0BD0A342E9D8A8
:1055A000E31ADBB2002B18D15A00D218D2000E4BEE
:1055B0009B18E5E72300F5E70C4C5322002120005F
:1055C000FFF744F9E01C1022FF21FFF73FF920000C
:1055D00013302022FF21FFF739F970BDD8250020B4
:1055E000792F0020F94B0010ECA7001000290020B3
:1055F00010B5FFF7BBFF00F0E7FD10BD70B505006B
:105600000C001600C86800F0E9FDE36832000121D3
:105610002800984770BD0000F0B5DE4657464E465C
:105620004546E0B583B001900139C8B2FFF742FDAD
:10563000002800D188E043789B46022B00D085E00B
:10564000C5796B1101224A4C1340190123781027A8
:10565000BB43AD112A4052010B4320218B4313431E
:105660002370060009368378C47824021C43041989
:10567000A64262D273780B2B09D001239846737827
:10568000042B6BD1A31B9BB29A46002523E0F37831
:1056900098463378F618F2E76F007F19FF00354B14
:1056A0001B68DF1929E02B0020E0BA68324B9A42D0
:1056B00032D1D84630E02E482B004A463100133014
:1056C00001F09AF94E442D4B1B78AB42D0D200200A
:1056D0003DE00135EDB2294B1B78AB42F3D3284AAC
:1056E000002AE0D0AB42D7D8EB1ADBB2002B37D17F
:1056F0005F00FB18DB00234FFF18002F32D052460B
:1057000031000198BB68984781460828E1D9824555
:10571000DFD34346012BC8D000229045CBD9B378C4
:105720009B18DBB21249C918C978FF291CD110494E
:10573000CB18DD700132D2B2EFE7134B002B15D03E
:1057400000E000BF012002E0002000E0002003B0E4
:105750003CBC90469946A246AB46F0BD0020F6E719
:105760000020F4E70020F2E70020F0E70120EEE758
:1057700000290020D8250020AD650010792F0020D9
:10578000F94B0010ECA700100000000070B50500F8
:105790000C00CB7888780F2B50D89A002E498A5865
:1057A0009746FFF783FC020012232100280000F037
:1057B000D1FC44E0294B002B42D000E000BF021E88
:1057C00040D08178C3781B020B432100280000F0F1
:1057D000C1FC34E0022B09D0214B002B34D000E077
:1057E00000BF0200002A05D1002028E0FFF762FC7C
:1057F0000200F7E79178D3781B020B4321002800C1
:1058000000F0A8FC1BE02379617909021943FFF736
:1058100055FC021E1AD003782100280000F09AFCE3
:105820000DE0104B002B13D000E000BF021E11D082
:1058300003782100280000F08DFC00E0002070BDFE
:105840000020FCE70020FAE70020F8E70020F6E758
:105850000020F4E70020F2E760A70010000000003D
:105860000000000000000000024B5878431E9841E1
:10587000C0B2704700290020024B18784007C00FC3
:105880007047C04600290020034B1878FF38431E9C
:105890009841C0B27047C046EC1B002070B50400B0
:1058A000FFF7F2FF061E01D0300070BD5322002129
:1058B0002348FEF7CBFF234D2800FBF71DFB224BAF
:1058C0001D60224D28001430FBF73CFB280001F03E
:1058D000E7FB1F4B1D601F4B002B04D01E48FFF73A
:1058E0008BF91E4B186000250BE06B005B19DA008A
:1058F0001A4B1B689B18002BD6D01B6898470135A4
:10590000EDB2154B1B78AB4210D3124A002A0BD0D4
:10591000AB42EAD8EB1ADBB2002BC5D15A00D21841
:10592000D2000F4B9B18E6E72B00F5E70D4B1C70E0
:105930002000FFF71BFD2000FFF7E4FC0126B3E782
:1059400000290020B828002054290020D01B002066
:1059500058290020F94B0010792F0020D82500206D
:10596000ECA70010EC1B002010B584B001AB0024A4
:10597000019408345C70029003911100180003F048
:10598000E3FB04B010BD000070B50C00094B1D789E
:105990008B7870221A4201D0002070BD064B997896
:1059A000200000F0EDFF0028F7D021002800FFF7CD
:1059B0002BFDF2E7EC1B002000290020F8B5CE46B5
:1059C000474680B581460C0017001E00089B98468C
:1059D000002504E0424613702378E4180135AF42F5
:1059E00014DD6378052B16D1E1788907890FB14260
:1059F00013D121004846FFF7C7FF002807D0A3783E
:105A0000DA09012AE6D1099A1370E5E701200CBCF6
:105A100090469946F8BD0020F9E70020F7E700001E
:105A200010B57F200840C9094000401830300449B3
:105A300008180330034B196800F05CFF10BDC04626
:105A4000002900205429002010B57F200840C909F2
:105A5000400040183030044908180330034B1968DF
:105A600000F070FF10BDC04600290020542900201E
:105A7000F8B5CE46474680B5194800787F250D40D9
:105A8000CE096F00174CE419A4193034E478E40708
:105A900004D500200CBC90469946F8BD114CE41981
:105AA000A4193027B946A1444C46E4780127BC46E6
:105AB00067463C4327004C46E770FFF7C9FC0028C7
:105AC000E8D16D00074B5D19AE193036F37801222D
:105AD0009343F370F37803329343F370DAE7C046ED
