:020000041000EA
:1000000000B5324B212058609868022188439860DF
:10001000D860186158612E4B002199600221596106
:100020000121F02299502B49196001219960352056
:1000300000F044F80222904214D00621196600F024
:1000400034F8196E01211966002018661A6600F04E
:100050002CF8196E196E196E052000F02FF8012189
:100060000842F9D1002199601B49196000215960AB
:100070001A491B48016001219960EB211966A021F2
:10008000196600F012F800219960164914480160C1
:100090000121996001BC002800D000471248134993
:1000A000086003C880F30888084703B5996A0420EC
:1000B0000142FBD001200142F8D103BD02B5186610
:1000C0001866FFF7F2FF186E186E02BD00000240BE
:1000D000000000180000070000035F00212200005C
:1000E000F4000018222000A00001001008ED00E03C
:1000F00000000000000000000000000074B24E7A12
:10010000F8B5C0460448054B10B5834203D0044BF4
:10011000002B00D0984710BD380400203804002080
:100120000000000006480749091A8B10C90FC918BA
:1001300010B5491003D0044B002B00D0984710BDD8
:1001400038040020380400200000000010B5074CDF
:100150002378002B09D1FFF7D5FF054B002B02D0E8
:10016000044800E000BF0123237010BD38040020C4
:100170000000000078020010054B10B5002B03D0E2
:100180000449054800E000BFFFF7CCFF10BDC046A2
:10019000000000003C0400207802001010B50100AF
:1001A00000230022002000F015F810BD70B5074DA7
:1001B000074C641BA41005D0013CA300EB589847E2
:1001C000002CF9D100F056F870BDC046380400206C
:1001D00038040020F0B5C64600B51F4C82B0246834
:1001E0000194A424019D64002D59002D2BD06C682E
:1001F0001F2C2EDC002809D10020631C0234A4002F
:100200006B60615102B004BC9046F0BD8827A60027
:10021000AE19F2510137FF37BC460122AC446746A4
:10022000A2403F68904617436246176084277F00CC
:10023000F3510228E0D12B0040468D33FF331A687A
:1002400010431860D8E7019D019E4D35FF353551AB
:10025000CDE701204042D5E778020010034B10B5EE
:10026000002B02D00248FFF799FF10BD00000000EC
:08027000AD010010F8B5C04615
:04027800080000205A
:10027C00080000200000000000000000F402002034
:10028C005C030020C40300200000000000000000FC
:10029C000000000000000000000000000000000052
:1002AC000000000000000000000000000000000042
:1002BC000000000000000000000000000000000032
:1002CC000000000000000000000000000000000022
:1002DC000000000000000000000000000000000012
:1002EC000000000000000000000000000000000002
:1002FC0000000000000000000000000000000000F2
:10030C0000000000000000000000000000000000E1
:10031C0000000000000000000000000000000000D1
:10032C0001000000000000000E33CDAB34126DE66E
:10033C00ECDE05000B0000000000000000000000D7
:10034C0000000000000000000000000000000000A1
:10035C000000000000000000000000000000000091
:10036C000000000000000000000000000000000081
:10037C000000000000000000000000000000000071
:0806AC005D020010790100104D
:0400000510000100E6
:00000001FF
